{
  "contractName": "Dex",
  "abi": [
    {
      "inputs": [
        {
          "internalType": "address[]",
          "name": "_tokenAddr",
          "type": "address[]"
        }
      ],
      "stateMutability": "nonpayable",
      "type": "constructor"
    },
    {
      "anonymous": false,
      "inputs": [
        {
          "indexed": false,
          "internalType": "address",
          "name": "account",
          "type": "address"
        },
        {
          "indexed": false,
          "internalType": "address",
          "name": "_tokenAddr",
          "type": "address"
        },
        {
          "indexed": false,
          "internalType": "uint256",
          "name": "_cost",
          "type": "uint256"
        },
        {
          "indexed": false,
          "internalType": "uint256",
          "name": "_amount",
          "type": "uint256"
        }
      ],
      "name": "Buy",
      "type": "event"
    },
    {
      "anonymous": false,
      "inputs": [
        {
          "indexed": false,
          "internalType": "address",
          "name": "account",
          "type": "address"
        },
        {
          "indexed": false,
          "internalType": "address",
          "name": "_tokenAddr",
          "type": "address"
        },
        {
          "indexed": false,
          "internalType": "uint256",
          "name": "_cost",
          "type": "uint256"
        },
        {
          "indexed": false,
          "internalType": "uint256",
          "name": "_amount",
          "type": "uint256"
        }
      ],
      "name": "Sell",
      "type": "event"
    },
    {
      "inputs": [
        {
          "internalType": "address",
          "name": "",
          "type": "address"
        }
      ],
      "name": "supportedTokenAddr",
      "outputs": [
        {
          "internalType": "bool",
          "name": "",
          "type": "bool"
        }
      ],
      "stateMutability": "view",
      "type": "function",
      "constant": true
    },
    {
      "inputs": [
        {
          "internalType": "address",
          "name": "_tokenAddr",
          "type": "address"
        },
        {
          "internalType": "uint256",
          "name": "_cost",
          "type": "uint256"
        },
        {
          "internalType": "uint256",
          "name": "_amount",
          "type": "uint256"
        }
      ],
      "name": "buyToken",
      "outputs": [],
      "stateMutability": "payable",
      "type": "function",
      "payable": true
    },
    {
      "inputs": [
        {
          "internalType": "address",
          "name": "_tokenAddr",
          "type": "address"
        },
        {
          "internalType": "uint256",
          "name": "_cost",
          "type": "uint256"
        },
        {
          "internalType": "uint256",
          "name": "_amount",
          "type": "uint256"
        }
      ],
      "name": "sellToken",
      "outputs": [],
      "stateMutability": "nonpayable",
      "type": "function"
    }
  ],
  "bytecode": "0x60806040523480156200001157600080fd5b5060405162000fed38038062000fed8339818101604052810190620000379190620001b3565b60005b8151811015620000f257600160008084848151811062000083577f4e487b7100000000000000000000000000000000000000000000000000000000600052603260045260246000fd5b602002602001015173ffffffffffffffffffffffffffffffffffffffff1673ffffffffffffffffffffffffffffffffffffffff16815260200190815260200160002060006101000a81548160ff0219169083151502179055508080620000e990620002c4565b9150506200003a565b50506200039b565b6000620001116200010b8462000221565b620001f8565b905080838252602082019050828560208602820111156200013157600080fd5b60005b858110156200016557816200014a88826200016f565b84526020840193506020830192505060018101905062000134565b5050509392505050565b600081519050620001808162000381565b92915050565b600082601f8301126200019857600080fd5b8151620001aa848260208601620000fa565b91505092915050565b600060208284031215620001c657600080fd5b600082015167ffffffffffffffff811115620001e157600080fd5b620001ef8482850162000186565b91505092915050565b60006200020462000217565b90506200021282826200028e565b919050565b6000604051905090565b600067ffffffffffffffff8211156200023f576200023e62000341565b5b602082029050602081019050919050565b60006200025d8262000264565b9050919050565b600073ffffffffffffffffffffffffffffffffffffffff82169050919050565b6000819050919050565b620002998262000370565b810181811067ffffffffffffffff82111715620002bb57620002ba62000341565b5b80604052505050565b6000620002d18262000284565b91507fffffffffffffffffffffffffffffffffffffffffffffffffffffffffffffffff82141562000307576200030662000312565b5b600182019050919050565b7f4e487b7100000000000000000000000000000000000000000000000000000000600052601160045260246000fd5b7f4e487b7100000000000000000000000000000000000000000000000000000000600052604160045260246000fd5b6000601f19601f8301169050919050565b6200038c8162000250565b81146200039857600080fd5b50565b610c4280620003ab6000396000f3fe6080604052600436106100345760003560e01c8063096db4d6146100395780633e11741f14610076578063e671499b1461009f575b600080fd5b34801561004557600080fd5b50610060600480360381019061005b91906106ce565b6100bb565b60405161006d919061098f565b60405180910390f35b34801561008257600080fd5b5061009d600480360381019061009891906106f7565b6100db565b005b6100b960048036038101906100b491906106f7565b610402565b005b60006020528060005260406000206000915054906101000a900460ff1681565b82600115156000808373ffffffffffffffffffffffffffffffffffffffff1673ffffffffffffffffffffffffffffffffffffffff16815260200190815260200160002060009054906101000a900460ff1615151461016e576040517f08c379a000000000000000000000000000000000000000000000000000000000815260040161016590610a0a565b60405180910390fd5b6000849050838173ffffffffffffffffffffffffffffffffffffffff166370a08231336040518263ffffffff1660e01b81526004016101ad91906108cf565b60206040518083038186803b1580156101c557600080fd5b505afa1580156101d9573d6000803e3d6000fd5b505050506040513d601f19601f820116820180604052508101906101fd919061076f565b101561023e576040517f08c379a0000000000000000000000000000000000000000000000000000000008152600401610235906109ea565b60405180910390fd5b82471015610281576040517f08c379a0000000000000000000000000000000000000000000000000000000008152600401610278906109aa565b60405180910390fd5b8073ffffffffffffffffffffffffffffffffffffffff166323b872dd3330876040518463ffffffff1660e01b81526004016102be939291906108ea565b602060405180830381600087803b1580156102d857600080fd5b505af11580156102ec573d6000803e3d6000fd5b505050506040513d601f19601f820116820180604052508101906103109190610746565b5060003373ffffffffffffffffffffffffffffffffffffffff1684604051610337906108ba565b60006040518083038185875af1925050503d8060008114610374576040519150601f19603f3d011682016040523d82523d6000602084013e610379565b606091505b50509050806103bd576040517f08c379a00000000000000000000000000000000000000000000000000000000081526004016103b490610a2a565b60405180910390fd5b7fa082022e93cfcd9f1da5f9236718053910f7e840da080c789c7845698dc032ff338787876040516103f29493929190610921565b60405180910390a1505050505050565b82600115156000808373ffffffffffffffffffffffffffffffffffffffff1673ffffffffffffffffffffffffffffffffffffffff16815260200190815260200160002060009054906101000a900460ff16151514610495576040517f08c379a000000000000000000000000000000000000000000000000000000000815260040161048c90610a0a565b60405180910390fd5b6000849050833410156104dd576040517f08c379a00000000000000000000000000000000000000000000000000000000081526004016104d490610a4a565b60405180910390fd5b828173ffffffffffffffffffffffffffffffffffffffff166370a08231306040518263ffffffff1660e01b815260040161051791906108cf565b60206040518083038186803b15801561052f57600080fd5b505afa158015610543573d6000803e3d6000fd5b505050506040513d601f19601f82011682018060405250810190610567919061076f565b10156105a8576040517f08c379a000000000000000000000000000000000000000000000000000000000815260040161059f906109ca565b60405180910390fd5b8073ffffffffffffffffffffffffffffffffffffffff1663a9059cbb33856040518363ffffffff1660e01b81526004016105e3929190610966565b602060405180830381600087803b1580156105fd57600080fd5b505af1158015610611573d6000803e3d6000fd5b505050506040513d601f19601f820116820180604052508101906106359190610746565b507f89f5adc174562e07c9c9b1cae7109bbecb21cf9d1b2847e550042b8653c54a0e3386868660405161066b9493929190610921565b60405180910390a15050505050565b60008135905061068981610bc7565b92915050565b60008151905061069e81610bde565b92915050565b6000813590506106b381610bf5565b92915050565b6000815190506106c881610bf5565b92915050565b6000602082840312156106e057600080fd5b60006106ee8482850161067a565b91505092915050565b60008060006060848603121561070c57600080fd5b600061071a8682870161067a565b935050602061072b868287016106a4565b925050604061073c868287016106a4565b9150509250925092565b60006020828403121561075857600080fd5b60006107668482850161068f565b91505092915050565b60006020828403121561078157600080fd5b600061078f848285016106b9565b91505092915050565b6107a181610a86565b82525050565b6107b081610a98565b82525050565b60006107c3601e83610a75565b91506107ce82610ace565b602082019050919050565b60006107e6600e83610a75565b91506107f182610af7565b602082019050919050565b6000610809601a83610a75565b915061081482610b20565b602082019050919050565b600061082c601b83610a75565b915061083782610b49565b602082019050919050565b600061084f600083610a6a565b915061085a82610b72565b600082019050919050565b6000610872601383610a75565b915061087d82610b75565b602082019050919050565b6000610895601183610a75565b91506108a082610b9e565b602082019050919050565b6108b481610ac4565b82525050565b60006108c582610842565b9150819050919050565b60006020820190506108e46000830184610798565b92915050565b60006060820190506108ff6000830186610798565b61090c6020830185610798565b61091960408301846108ab565b949350505050565b60006080820190506109366000830187610798565b6109436020830186610798565b61095060408301856108ab565b61095d60608301846108ab565b95945050505050565b600060408201905061097b6000830185610798565b61098860208301846108ab565b9392505050565b60006020820190506109a460008301846107a7565b92915050565b600060208201905081810360008301526109c3816107b6565b9050919050565b600060208201905081810360008301526109e3816107d9565b9050919050565b60006020820190508181036000830152610a03816107fc565b9050919050565b60006020820190508181036000830152610a238161081f565b9050919050565b60006020820190508181036000830152610a4381610865565b9050919050565b60006020820190508181036000830152610a6381610888565b9050919050565b600081905092915050565b600082825260208201905092915050565b6000610a9182610aa4565b9050919050565b60008115159050919050565b600073ffffffffffffffffffffffffffffffffffffffff82169050919050565b6000819050919050565b7f44657820646f6573206e6f74206861766520656e6f7567682066756e64730000600082015250565b7f746f6b656e20736f6c64206f7574000000000000000000000000000000000000600082015250565b7f496e73756666696369656e7420746f6b656e2062616c616e6365000000000000600082015250565b7f7468697320746f6b656e206973206e6f7420737570706f727465640000000000600082015250565b50565b7f455448207472616e73666572206661696c656400000000000000000000000000600082015250565b7f496e73756666696369656e742066756e64000000000000000000000000000000600082015250565b610bd081610a86565b8114610bdb57600080fd5b50565b610be781610a98565b8114610bf257600080fd5b50565b610bfe81610ac4565b8114610c0957600080fd5b5056fea264697066735822122030dce6d5b31d44592cbc6e3f80ed274dfb231a856a8109b9bdcfc423a41f502a64736f6c63430008040033",
  "immutableReferences": {},
  "source": "// SPDX-License-Identifier: MIT\npragma solidity ^0.8.4;\nimport \"./ERC20.sol\";\n\ncontract Dex {\n    event Buy(\n        address account,\n        address _tokenAddr,\n        uint256 _cost,\n        uint256 _amount\n    );\n\n    event Sell(\n        address account,\n        address _tokenAddr,\n        uint256 _cost,\n        uint256 _amount\n    );\n\n    mapping(address => bool) public supportedTokenAddr; // put a limit on the supported token\n\n    modifier supportsToken(address _tokenAddr) {\n        require(\n            supportedTokenAddr[_tokenAddr] == true,\n            \"this token is not supported\"\n        );\n        _;\n    }\n\n    // put the supported token Addr into a list\n    constructor(address[] memory _tokenAddr) {\n        for (uint256 i = 0; i < _tokenAddr.length; i++) {\n            supportedTokenAddr[_tokenAddr[i]] = true;\n        }\n    }\n\n    function buyToken(\n        address _tokenAddr,\n        uint256 _cost,\n        uint256 _amount\n    ) external payable supportsToken(_tokenAddr) {\n        ERC20 token = ERC20(_tokenAddr);\n        require(msg.value >= _cost, \"Insufficient fund\");\n        require(token.balanceOf(address(this)) >= _amount, \"token sold out\");\n        token.transfer(msg.sender, _amount);\n        emit Buy(msg.sender, _tokenAddr, _cost, _amount);\n    }\n\n    function sellToken(\n        address _tokenAddr,\n        uint256 _cost,\n        uint256 _amount\n    ) external supportsToken(_tokenAddr) {\n        ERC20 token = ERC20(_tokenAddr);\n        require(\n            token.balanceOf(msg.sender) >= _cost,\n            \"Insufficient token balance\"\n        );\n        require(\n            address(this).balance >= _amount,\n            \"Dex does not have enough funds\"\n        );\n        token.transferFrom(msg.sender, address(this), _cost);\n        (bool success, ) = payable(msg.sender).call{value: _amount}(\"\"); // there is no function to be called so it is blank.\n        require(success, \"ETH transfer failed\");\n        emit Sell(msg.sender, _tokenAddr, _cost, _amount);\n    }\n}\n",
  "sourcePath": "/Users/zengzhenwu/Desktop/projects/web3_test/contracts/Dex.sol",
  "compiler": {
    "name": "solc",
    "version": "0.8.4+commit.c7e474f2.Emscripten.clang"
  },
  "schemaVersion": "3.2.3",
  "updatedAt": "2021-08-18T15:50:02.121Z",
  "networkType": "ethereum",
  "devdoc": {
    "kind": "dev",
    "methods": {},
    "version": 1
  },
  "userdoc": {
    "kind": "user",
    "methods": {},
    "version": 1
  }
}